:020000040800F2
:10000000C03C002029020008D51E0008431D00083E
:10001000B51E000897050008092900080000000027
:10002000000000000000000000000000192100088E
:100030005506000800000000D71E00081B2100081C
:10004000430200084302000843020008430200087C
:10005000430200084302000843020008430200086C
:10006000430200084302000843020008430200085C
:10007000430200084302000843020008430200084C
:1000800099050008A505000843020008430200087E
:10009000430200084302000843020008430200082C
:1000A000430200084302000843020008430200081C
:1000B000430200084302000843020008430200080C
:1000C00043020008430200084302000843020008FC
:1000D0004302000843020008D1260008430200083A
:1000E00043020008430200084302000843020008DC
:1000F00043020008430200084302000843020008CC
:1001000043020008430200084302000843020008BB
:100110004302000843020008C5210008430200080A
:10012000430200084302000843020008430200089B
:10013000430200084302000843020008430200088B
:10014000430200084302000843020008430200087B
:10015000430200084302000843020008430200086B
:10016000430200084302000843020008430200085B
:100170004302000843020008430200080000000098
:10018000430200084302000800F002F800F03CF8C7
:100190000AA090E8000C82448344AAF10107DA45E2
:1001A00001D100F031F8AFF2090EBAE80F0013F0F8
:1001B000010F18BFFB1A43F0010318475830000025
:1001C00078300000103A24BF78C878C1FAD85207B6
:1001D00024BF30C830C144BF04680C6070470000C1
:1001E0000023002400250026103A28BF78C1FBD840
:1001F000520728BF30C148BF0B6070471FB502F0DF
:10020000EBFF1FBD10B510BD00F08CF91146FFF7D4
:10021000F5FF02F008FD00F0AAF903B4FFF7F2FFC2
:1002200003BC00F0B1F900000948804709480047C5
:10023000FEE7FEE7FEE7FEE7FEE7FEE7FEE7FEE796
:10024000FEE7FEE704480549054A064B70470000F3
:10025000B521000889010008C0360020C03C0020FC
:10026000C0380020C038002053EA020C00F069803A
:100270002DE9F04B4FF00006002B1FBFB3FA83F5BA
:1002800003FA05F424FA05F65E4012BF1643B2FAEB
:1002900082F502FA05F4C5F120051EBF22FA05FC1D
:1002A00044EA0C04203556EA044C4FEA144418BFC3
:1002B000641C4FF000084FF00009904271EB030CF2
:1002C00039D3002919BFB1FA81F701FA07F6B0FA5C
:1002D00080F700FA07F6C7F120071EBF20FA07FCD7
:1002E00046EA0C062037B6FBF4FCA7EB0507103FE7
:1002F00007F01F0BCBF120060CFA0BFB2CFA06F6CD
:1003000044BFB3460026202FA4BF5E464FF0000B2B
:100310005BEA060C08BF4FF0010B19EB0B09ABFBB6
:10032000027C48EB0608C01B06FB02CC0BFB03CC8F
:1003300071EB0C01C1E70B46024641464846BDE859
:10034000F08B13B54FF000004FF00001AFF30080C9
:10035000BDE81C40704740EA0103024630B59B07E8
:1003600010D14FF0013400E008C208C91D1B9D43A5
:1003700015EAC41FF8D013F0FF0102F8011B0DD0DD
:100380001B0AF8E711F8013B002B02F8013B05D0EE
:1003900011F8013B002B02F8013BF3D130BD032AD9
:1003A00040F2308010F0030C00F0158011F8013B92
:1003B000BCF1020F624498BF11F801CB00F8013B79
:1003C00038BF11F8013BA2F1040298BF00F801CB3D
:1003D00038BF00F8013B11F0030300F07180083AC8
:1003E000C0F0088051F8043B083A51F804CBA0E86B
:1003F0000810F5E7121D5CBF51F8043B40F8043BC0
:10040000AFF30080D20724BF11F8013B11F801CBF4
:1004100048BF11F8012B24BF00F8013B00F801CBC5
:1004200048BF00F8012B70474FF000020429C0F0CC
:10043000128010F0030C00F01B80CCF1040CBCF116
:10044000020F18BF00F8012BA8BF20F8022BA1EB68
:100450000C0100F00DB85FEAC17C24BF00F8012B4D
:1004600000F8012B48BF00F8012B70474FF0000245
:1004700000B5134694469646203922BFA0E80C509A
:10048000A0E80C50B1F12001BFF4F7AF090728BF75
:10049000A0E80C5048BF0CC05DF804EB890028BFF1
:1004A00040F8042B08BF704748BF20F8022B11F01A
:1004B000804F18BF00F8012B704770477047704796
:1004C00010B5203AC0F00B80B1E81850203AA0E8EF
:1004D0001850B1E81850A0E81850BFF4F5AF5FEA23
:1004E000027C24BFB1E81850A0E8185044BF18C9D6
:1004F00018C0BDE810405FEA827C24BF51F8043B7D
:1005000040F8043B08BF7047D20728BF31F8023BD0
:1005100048BF11F8012B28BF20F8023B48BF00F864
:10052000012B7047754600F02BF8AE460500694672
:10053000534620F00700854618B020B5FFF782FE2D
:10054000BDE820404FF000064FF000074FF00008D4
:100550004FF0000B21F00701AC46ACE8C009ACE855
:10056000C009ACE8C009ACE8C0098D46704710B5B9
:100570000446AFF300802046BDE81040FFF74DBEB3
:10058000004870475C36002001491820ABBEFEE7EA
:10059000260002007047FEE7014800F0EBB80000BB
:1005A000A8000020014800F0E5B800000801002084
:1005B00001681823CAB2103AB2FBF3F2054B6FF38D
:1005C0000901032A9B5CC36500D9091D81650846A2
:1005D00070470000E231000810B5014600208B6929
:1005E0008A6A4FF0C07453B1B3F5005F15D072B191
:1005F000012A0CD0022A0AD0032A09D104E01AB138
:10060000012A06D0022A03D1C96AC90100D50120F6
:1006100010BDC96AA142FAD010BD002AF7D0012A44
:10062000F2D0022AF3D0032AF3D010BD30B504680B
:10063000256825F480252560046863608368402B65
:10064000036803D099600068C26030BD9A6000689A
:10065000C16030BD704772B6FEE72DE9F041044637
:10066000876D00F0BDFB064694F835000025022892
:1006700006D08020606584F834500120BDE8F08108
:100680002068016821F0160101602068416921F0AD
:1006900080014161206C08B9A06C20B1206801681C
:1006A00021F0080101602068016821F0010101606A
:1006B0000CE000F095FB801B052807D92020606521
:1006C000032084F8350084F83450D7E720680068A8
:1006D000C007EED194F85C103F208840B86001203C
:1006E00084F8350084F834500020C7E790F83510BE
:1006F000022903D08021416501207047052180F83F
:1007000035100068016821F0010101600020704788
:1007100070B504002BD094F83500022826D020684C
:10072000016821F001010160206800250560206852
:100730004560206885602068C56020680561216883
:10074000212048612046FFF733FFE5632564656497
:10075000A564E564256594F85C203F2191408160A3
:10076000656584F8355084F83450002070BD012050
:1007700070BD00002DE9F84304464FF00009CDF8A4
:10078000009063484FF41651A56D0068B0FBF1F777
:100790002E6894F85C10082000FA01F131420FD065
:1007A00021680A6852070BD50A6822F004020A6021
:1007B00094F85C108840A860606D40F001006065AE
:1007C00094F85C104FF0010808FA01F0304208D0AC
:1007D00021684969090604D5A860606D40F00200EF
:1007E000606594F85C1004208840304208D021688D
:1007F0000968890704D5A860606D40F00400606551
:1008000094F85C1010208840304218D021680968A4
:10081000090714D5A86020680168490304D5006859
:10082000000308D5A16C07E00168C90503D401687D
:1008300021F008010160216C09B12046884794F835
:100840005C1020208840304231D021680968C906F8
:100850002DD5A86094F8350005282068016806D0D9
:10086000490347D5006800031DD4616C1CE021F0EA
:10087000160101602068416921F080014161206C0E
:1008800008B9A06C20B12068016821F0080101605E
:1008900094F85C103F208840A86084F8358084F884
:1008A0003490216D1FE0E16B09B120468847606DEF
:1008B00000282BD0606DC00714D0052084F83500C7
:1008C0002068016821F0010101600098401C00903F
:1008D000B84203D820680068C007F6D184F8358094
:1008E00084F83490E16C002910D001B02046BDE8B6
:1008F000F04308470168C905D5D4016821F010010B
:10090000016084F8358084F83490CCE7BDE8F88342
:100910000C0000202DE9F041044600F061FA064683
:100920005CB1022084F83500002584F8345020683A
:10093000016821F0010101600DE00120BDE8F081B6
:1009400000F04EFA801B052805D9202060650320A1
:1009500084F83500F2E720680068C007F0D122680B
:10096000116820480140D4E901031843D4E9033653
:100970003343184363691843A3691843E369184371
:10098000236A18430843616A042903D1D4E90B138D
:1009900019430843106020684069666A20F0070127
:1009A00030460E43012704280CD1A06A0643E06AB2
:1009B00040B12046FFF710FE20B14020606584F86A
:1009C0003570BAE7206846612046FFF7F1FD94F8DC
:1009D0005C203F2191408160656584F8357000207E
:1009E000ACE700003F8010F02DE9F0410446866D31
:1009F00090F83400002501280DD0012084F834003F
:100A000094F835700020012F07D084F834000225B7
:100A10002846BDE8F0810220FBE7022784F8357004
:100A200060652046FFF702FE94F85C103F20884086
:100A3000B0602068016841F016010160206C20B1AF
:100A40002068016841F0080101602068016841F0F8
:100A500001010160DCE7000070B5044600F0C0F958
:100A60000546601C02D004480078044400F0B8F940
:100A7000401BA042FAD370BD000000202DE9F04FCA
:100A80000022DFF838B101264FF00F0906FA02F410
:100A900001EA0403A3427DD122F003075F44D7F8A3
:100AA000088895074FEA157C09FA0CFA0AEA080546
:100AB000DFF80C81404502D14FF0000832E0DFF84A
:100AC0000481404502D14FF001082BE0DFF8F880A7
:100AD000404502D14FF0020824E0DFF8F0804045A5
:100AE00002D14FF003081DE0DFF8E480404502D159
:100AF0004FF0040816E0DFF8DC80404502D14FF0EB
:100B000005080FE0DFF8D080404502D14FF006081D
:100B100008E0DFF8C880404502D14FF0070801E047
:100B20004FF0080808FA0CF8A84522D12C4DD5F84A
:100B300000C02CEA030CC5F800C005F1040CDCF879
:100B400000509D43CCF80050254D0C35D5F800C021
:100B50002CEA030CC5F800C02D1FD5F800C02CEA04
:100B6000030CC5F800C0D7F8085825EA0A05C7F8ED
:100B70000858056857000323BB409D430560D5080E
:100B800000EB8505D5F820C057074FEAD76809FA6A
:100B900008F700E00CE02CEA070CC5F820C0C56897
:100BA0009D43C5604568A543456084689C43846057
:100BB000521C102AFFF46AAFBDE8F08F00300140EC
:100BC000000002400004024000080240000C024005
:100BD000001002400014024000180240001C0240B5
:100BE000003C01402DE9F84FDFF8BCA100220125AF
:100BF00003264FF00F090AF1040BAAF1040E00BFFF
:100C00000B6805FA02F42340A34270D10F7907F074
:100C10000307012F01D0022F16D187684FEA42083F
:100C200006FA08FC27EA0C07D1F80CC00CFA08FCFD
:100C30004CEA070CC0F808C04768A7430C79C4F316
:100C4000001494403C4344600C79E443A4070AD068
:100C5000C4684FEA420C06FA0CF7BC438F6807FAE7
:100C60000CF72743C7600C7904F00304022C12D15F
:100C7000D40800EB840CDCF820405707FF0E09FA7B
:100C800007F824EA0804D1F8108008FA07F848EABF
:100C90000408CCF8208004684FEA420C06FA0CF7EE
:100CA000BC430F7907F0030707FA0CF727430760E7
:100CB0004C6814F4403F70D03C4C276847F48047A0
:100CC0002760246822F0030704F480440094384C21
:100CD00007EB040CDCF8084897074FEA177809FA85
:100CE00008F7BC43334FB84202D1002724E054E058
:100CF000314FB84201D101271EE0304FB84201D137
:100D0000022719E02E4FB84201D1032714E02D4FDE
:100D1000B84201D104270FE02B4FB84201D105277B
:100D20000AE02A4FB84201D1062705E0284FB84211
:100D300001D1072700E0082707FA08F72743CCF876
:100D40000878DAF800405746D1F804C09C435FEABF
:100D5000CC2C00D51C433C60DBF800405F46D1F84A
:100D600004C09C435FEA8C2C00D51C433C60DEF839
:100D700000407746D1F804C09C435FEA8C3C00D524
:100D80001C433C60084F083F3C68D1F804C09C43BA
:100D90005FEACC3C00D51C433C60521C102AFFF497
:100DA0002FAFBDE8F88F0000083C014044380240F6
:100DB00000300140000002400004024000080240F0
:100DC000000C0240001002400014024000180240D3
:100DD000001C02400AB1816170470904FBE7000072
:100DE00001488068704700000000002002488168C8
:100DF0000278114481607047000000200B4810B554
:100E0000016841F400710160016841F48061016092
:100E1000016841F480710160032000F07FF80F2029
:100E200000F006F800F024F8002010BD003C02405D
:100E300070B50D4D04464FF47A712878B1FBF0F08F
:100E40000A490968B1FBF0F000F01AFB48B9102C10
:100E500007D200222146501E00F040F800206C60AE
:100E600070BD012070BD0000000000200C000020BB
:100E70000A4808B5016841F480410160006800F447
:100E8000804000900548001F016841F080510160DA
:100E9000006800F08050009008BD00004438024017
:100EA00000280DDB00F01F02012191404009800065
:100EB00000F1E020C0F88011BFF34F8FBFF36F8FB8
:100EC0007047002809DB00F01F0201219140400912
:100ED000800000F1E020C0F800117047F0B40E4B24
:100EE0001B680C46C3F30223C3F10705042D00D988
:100EF0000425191D072901D2002300E0DB1E01266D
:100F000006FA05F1491E214099409E40761E164082
:100F10003143F0BC01F075BE0CED00E0064900F075
:100F2000070208684FF6FF03184040EA0220034A10
:100F300010430860704700000CED00E00000FA0567
:100F40002DE9F0470E46050065D0DFF81481D8F88A
:100F50000000F7B200F00700B04207D288F8007036
:100F6000D8F8000000F00700B04254D128683D4C8A
:100F7000810712D5400703D5206840F4E050206077
:100F80002878000703D5206840F46040206020687E
:100F9000A96820F0F000084320602878C0072DD011
:100FA000304968680839012812D0022813D0032874
:100FB00011D00968890700292DDA216821F0030181
:100FC00001432160FFF70CFF814641F2883A0EE0B1
:100FD00009688903EFE709688901ECE7FFF700FF7B
:100FE000A0EB0901514502D90320BDE8F087206834
:100FF000696800F00C00B0EB810FEFD1D8F8001059
:10100000404601F00701B14207D90770006800F0BF
:101010000700B04201D00120E7E72878400705D556
:101020002068E96820F4E050084320602878000731
:1010300006D52068296920F4604040EAC10020609C
:1010400000F038F82168084AC1F30311515CC84028
:101050000649086006480068FFF7EAFE0020C4E77A
:10106000003C024008380240EA3100080C00002031
:10107000040000200448054900680968044AC1F3D7
:101080008221515CC84070470C00002008380240A3
:10109000FA3100080448054900680968044AC1F3A8
:1010A0004231515CC84070470C00002008380240B3
:1010B000FA310008154810B5006810F00C02144809
:1010C00013D04110042A0FD0082A0ED10F4C241F30
:1010D0002268236802F03F025B0207D52068C0F354
:1010E0008810A0FB010106E0084610BD2168C1F38D
:1010F0008811A1FB00010023FFF7B6F82168C1F3B6
:101100000141491C4900B0FBF1F010BD0838024014
:101110000024F4002DE9F84F04006ED02078DFF8A9
:101120004C93C007A9F104054AD009F104000168F5
:10113000C1F38101012908D00068C0F381000228B1
:101140000AD1D9F80000400206D52868800337D5B7
:1011500060680028E1D033E06068B0F5803F10D0CF
:10116000B0F5A02F286810D020F4803028602868BF
:1011700020F4802028606068A8B1FFF731FE0646A1
:101180000DE0286840F48030F4E740F480202860C7
:10119000F7E700BFFFF724FE801B642873D8286898
:1011A0008003F7D50CE0FFF71BFE064605E000BF05
:1011B000FFF716FE801B6428F0D828688003F7D458
:1011C0002078DFF8AC8280074FF0000A3ED5A748B0
:1011D000001D016811F00C0F08D00068C0F38100F9
:1011E00002280BD1D9F80000400207D428688007F4
:1011F00016D5E068012800D112E033E1E068B8B10B
:101200000120C8F80000FFF7EBFD064605E000BF2F
:10121000FFF7E6FD801B0228C0D828688007F7D5B5
:101220002868216920F0F80040EAC10028600DE03C
:10123000C8F800A0FFF7D4FD064604E0FFF7D0FD94
:10124000801B02281FD828688007F7D42078000761
:1012500022D5864F87486169703771B101210160DD
:10126000FFF7BEFD064604E0FFF7BAFD801B02282B
:1012700009D838688007F7D50EE0C0F800A0FFF75E
:10128000AFFD064605E082E0FFF7AAFD801B0228BD
:101290007DD838688007F7D42078400768D5DFF814
:1012A000CCB100270BF13C0BDBF80000C0000BD4E5
:1012B000DBF8001041F08051CBF80010DBF80000A3
:1012C000012700F0805000906B4E3068C00510D4AC
:1012D000306840F480703060FFF782FD009005E0D8
:1012E000FFF77EFD0099401A022850D83068C005EB
:1012F000F6D55E4EA0686C3601280FD00528306800
:1013000010D020F001003060306820F00400306020
:10131000A068B8B1FFF764FD00900FE0306840F0BE
:101320000100F4E740F004003060F7E7FFF758FDF4
:101330000099411A41F28830814266D830688007AE
:10134000F4D50EE0FFF74CFD009007E0FFF748FDF5
:101350000099411A41F28830814256D8306880079E
:10136000F4D42FB1DBF8001021F08051CBF800103D
:10137000A069C8B33D49091D0968C1F3810102296B
:101380004AD00228504607D0C8F8600000E03CE090
:10139000FFF726FD04463BE04746C8F86000FFF72C
:1013A0001FFD064605E000BFFFF71AFD801B02285F
:1013B0002BD828688001F7D4D4E907010843A16A33
:1013C0002E4A490802EB0141626A41EA8211084350
:1013D00094F82C1040EA0161C9F800100120386629
:1013E000FFF7FEFC044606E03EE000BFFFF7F8FC16
:1013F000001B022809D828688001F7D534E000BF17
:10140000FFF7EEFC001B022802D90320BDE8F88F8D
:1014100028688001F4D427E00128F7D0D9F800002B
:10142000E26900F4800191421CD1226A00F03F0180
:10143000914217D147F6C071626A0140B1EB821F39
:1014400010D1A26A4FF0FF3300F4403103EB520297
:10145000B1EB024F06D194F82C1000F07060B0EBA5
:10146000016F01D00120D1E70020CFE7043802400E
:1014700000004742800E4742007000400000FFFF1E
:1014800010B5401EB0F1807F01D3012010BD4FF098
:10149000E02460610F21601701F0B3FB0020A06120
:1014A00007202061002010BD7047704770B590F88C
:1014B0003C20012A32D0012480F83C40022280F8EE
:1014C0003D2003685A689D6822F070060A6832431E
:1014D0005A60134B02689A4214D0B2F1804F11D077
:1014E000104B9A420ED0104B9A420BD00F4B9A429F
:1014F00008D00F4B9A4205D00E4B9A4202D00E4BA9
:101500009A4204D1496825F080031943916080F81C
:101510003D40002180F83C10084670BD022070BD9F
:10152000000001400004004000080040000C0040A2
:1015300000040140004001400018004010B50400C4
:1015400003D094F83D0010B107E0012010BD002049
:1015500084F83C00204600F01FF8022084F83D008B
:10156000211D206800F03EFE012084F8460084F82A
:101570003E0084F83F0084F8400084F8410084F87D
:10158000420084F8430084F8440084F8450084F85D
:101590003D00002010BD000008B500680B498842DE
:1015A00012D10B48016841F010010160006800226F
:1015B00000F01000009001213620FFF78FFCBDE8FD
:1015C00008403620FFF77DBC08BD00000010004039
:1015D0004038024090F83D10012901D001207047A9
:1015E000022180F83D100168CA6842F00102CA6019
:1015F00000681149884214D0B0F1804F11D00F49D2
:1016000088420ED00E4988420BD00E49884208D03D
:101610000D49884205D00D49884202D00C498842C4
:1016200004D1816801F00701062903D0016841F067
:1016300001010160002070470000014000040040EB
:1016400000080040000C0040000401400040014040
:101650000018004070472DE9F04104460068C66854
:1016600005694FF00007A90713D5B10711D5F91E79
:10167000016101202077206880698007204602D020
:10168000FFF7E8FF04E000F07EF8204600F07CF869
:101690002777680716D5700714D521686FF0040006
:1016A0000861022020772068806910F4407F20467E
:1016B00002D0FFF7CFFF04E000F065F8204600F00D
:1016C00063F82777280715D5300713D521686FF001
:1016D00008000861042020772068C0698007204640
:1016E00002D0FFF7B7FF04E000F04DF8204600F00D
:1016F0004BF82777E80616D5F00614D521686FF069
:1017000010000861082020772068C06910F4407F2D
:10171000204602D0FFF79EFF04E000F034F8204698
:1017200000F032F82777E80708D0F00706D02168E4
:101730006FF001000861204600F027F8280608D560
:10174000300606D521686FF0800008612046FFF75B
:10175000ABFE680608D5700606D521686FF040001C
:101760000861204600F012F8A8060AD5B00608D590
:1017700021686FF0200008612046BDE8F041FFF7C6
:1017800094BEBDE8F081704770477047704738B528
:10179000044690F84200202801D0022038BD61B1F3
:1017A0005AB10120206300206063204600F048FF0A
:1017B0000028F3D1216B012901D0012038BD216817
:1017C0000A684968009121680C3151E8002F42F005
:1017D000100241E80023002BF5D138BD054A9042A4
:1017E00007D105480278882A03D1044A118089214B
:1017F00001707047600000202006002014000020C7
:1018000010B504460068406994F84110C0F3C01058
:10181000212911D180B12068143050E8001F21F037
:10182000800140E80012002AF5D1A06B08B1FEF754
:1018300014FF204600F00EFE2068406994F8421024
:10184000C0F38010222911D180B12068143050E8F3
:10185000001F21F0400140E80012002AF5D1E06BA2
:1018600008B1FEF7FAFE204600F0CDFD002010BDC5
:1018700010B5040015D0242084F841002068C16808
:1018800021F40051C160204600F078F90020606426
:1018900084F8410084F8420044F8300F60602074FE
:1018A00010BD012010BD7047F8B5016804460868F6
:1018B000CA684B6910F00F0F4FF0000559D003F0C4
:1018C000010602F49077374365D0C10705D0D105F2
:1018D00003D5616C41F001016164410705D5D90769
:1018E00003D0616C41F002016164810705D5D9071D
:1018F00003D0616C41F004016164010707D502F077
:101900002001314303D0616C41F008016164616CD6
:1019100000293AD0800604D5900602D5204600F072
:10192000A7FD20684069616CC0F38010090700D4EE
:1019300060B3204600F067FD20684069400621D56D
:101940002068143050E8001F21F0400140E80012E8
:10195000002AF5D1E06BA8B16E490165E06BFEF796
:10196000C5FE002811D0E06B016D01B0BDE8F0406C
:10197000084783060FD593060DD52046BDE8F840ED
:1019800000F076BD2046FFF78EFFF8BD2046FFF73A
:101990008AFF6564F8BD266B2023012E7DD1C60623
:1019A0007BD5D60679D508684868009048694FF01D
:1019B0000206400641D5E16B086840680004000C4F
:1019C000E8D0A28D8242E5D9E085C869B0F5807F74
:1019D0002DD020680C3050E8001F21F4807140E8C1
:1019E0000012002AF5D12068143050E8001F21F0C1
:1019F000010140E80012002AF5D12068143050E8B7
:101A0000001F21F0400140E80012002AF5D184F8BF
:101A10004230256320680C3050E8001F21F010018F
:101A200040E80012002AF5D1E06BFEF716FE66636F
:101A3000A08DE18D401A81B22AE0A08DE18D401A7F
:101A400081B2E08D0028A5D00029A3D022680C32F5
:101A500052E8000F20F4907042E80007002FF5D103
:101A60002068143050E8002F22F0010240E80027DF
:101A7000002FF5D184F84230256320680C3050E8FF
:101A8000002F22F0100240E80023002BF5D16663FE
:101A90002046FFF7A3FEF8BDFFE705062BD5150688
:101AA00029D594F841002128F5D1A068B0F5805FD0
:101AB00001D12069B0B1206A411C216221680078FF
:101AC0004860E08C401E0004000CE084E3D12068F4
:101AD000C16821F08001C1602068C16841F0400107
:101AE000C160D8E7206A0088C0F308004860206A17
:101AF000801C2062E5E74006CDD55006CBD5CA68EC
:101B0000204622F04002CA6084F8413000F00AF911
:101B1000C1E70000BD22000870B5040004D094F8AD
:101B20004100002510B106E0012070BD84F840504E
:101B3000204600F045F8242084F841002068C16860
:101B400021F40051C160204600F0F4FC20680169D6
:101B500021F4904101612068416921F02A0141612D
:101B60002068C16841F40051C1606564202084F898
:101B7000410084F842006563002070BD10B5044642
:101B800000680C49884213D10B48016821F40031E8
:101B900001600C210948FEF771FFE06BFEF7B8FD0C
:101BA000A06BFEF7B5FDBDE810402620FFF778B921
:101BB00010BD0000004400404038024000000240D8
:101BC0002DE9F04387B0064614216846FEF74EFC27
:101BD0003049306888425AD12F480024016841F4C6
:101BE00000310160006800F4003005902A48103888
:101BF000016841F0010101600068694600F00100E0
:101C000005900C2000900220CDE9010403200390F0
:101C1000072004902148FEF7E5FF224D20484FF0B1
:101C200000672860C5E901744FF48068C5E903487E
:101C30006C614FF44039AC61C5E9074928466C62D4
:101C4000FEF768FE08B1FEF706FDF563AE63154DBD
:101C5000134860351830E5E802074020A5E8110177
:101C6000104845F814496030AC61C5E907496C6219
:101C7000FEF750FE08B1FEF7EEFCB563002202212C
:101C80002620AE63FFF72AF92620FFF71AF907B0DE
:101C9000BDE8F083004400404038024000000240AC
:101CA00088600240A80000207047704770B5044665
:101CB00090F84100202801D0022070BD49B342B302
:101CC0002162A284E28400206064212384F84130F0
:101CD000A56B114BEB63A56B104B2B64A56B104BE5
:101CE000EB64A36B1865256813462A1DA06BFEF7ED
:101CF0007BFE21686FF0400008602068143050E8D7
:101D0000001F41F0800140E80012002AF5D10020B8
:101D100070BD012070BD0000BB230008FD2300083A
:101D2000CD2200080449884205D10448017883295E
:101D300001D184210170704760000020200600203E
:101D40007047FEE70D4808B5016841F400110160D5
:101D50000068002200F40010009011461020FFF7E8
:101D6000BDF81020FFF7ADF8002211461120FFF753
:101D7000B5F8BDE808401120FFF7A3B8303802409D
:101D80002DE9F04186B014216846FEF76FFB274825
:101D90000024016841F004010160016801F00401C0
:101DA0000591016841F020010160016801F0200106
:101DB0000591016841F080010160016801F0800136
:101DC0000591016841F001010160016801F0010124
:101DD0000591016841F0400101600068144F00F076
:101DE00040004FF4C0650590002229463846FEF7B2
:101DF000F1FFDFF84080BE15002231464046FEF775
:101E0000E9FF00950125CDE9015469463846039460
:101E1000FEF7E8FE0096CDE901546946404603947A
:101E2000FEF7E0FE06B0BDE8F08100003038024069
:101E300000140240001802401CB500240E48009413
:101E40000C49019401605321C0E9011463218461AC
:101E5000C160FFF773FB08B1FEF7FDFB0094694614
:101E600005480194FFF722FB002801D0FEF7F3FBA1
:101E70001CBD000000100040180000200C4810B5E8
:101E80000A4901604FF4E1314160002181600C2278
:101E9000C160C0E904128161C161FFF73DFE002805
:101EA00003D0BDE81040FEF7D6BB10BD0044004093
:101EB00060000020FEE7000004490120087000F0E7
:101EC0009BFF0348FFF786FB01F03EF92C0600203C
:101ED00018000020FEE770472DE9F04107460B4847
:101EE00015460E46007808B900F010FDEFF3118496
:101EF000202080F311882A463146384600F008F841
:101F0000E1B281F31188BDE8F08100006801002092
:101F100070B50E46144900EB400001EBC0051446B5
:101F2000E86A183520B101280FD0022805D113E046
:101F3000284600F01FFDA04201D2002411E02246F5
:101F40003146284600F03CFE0BE0284600F012FD2A
:101F5000A042F4D20446F2E73146284600F003FEE0
:101F60000446204670BD0000680100200FB408B58B
:101F700004A900916A46039900F003F801B05DF8E6
:101F800014FB2DE9F04198B0064607A802904020C6
:101F90000025CDE90305CDE9055690460C4614F819
:101FA000011B002973D0252908D002A800F0BCFD30
:101FB00005980028F3DA18B0BDE8F081002001216F
:101FC0002278232A1ED02B2A19D02D2A02D0302A7B
:101FD00008D102E040F0010001E040F00200641C82
:101FE0000029EDD100222178A1F130030A2B0CD277
:101FF00002EB820201EB4202303A641CF3E740F04C
:102000000400ECE740F00800E9E70023CFB22E2FF0
:102010000BD114F8011FA1F130070A2F05D203EBF1
:10202000830301EB4303303BF3E76C290DD06829B0
:102030000BD0702954D00BDC252916D0582931D06B
:1020400063290CD0642913D114E014F8011FECE7C4
:10205000732934D075291BD0782909D122E0D8F80A
:102060000000011DC8F80010017802A800F05CFD16
:10207000641C9DE7D8F800100F1DC8F800700968AF
:10208000CDE900200A2202A800F080FCF0E733E04E
:10209000D8F800100F1DC8F800700968CDE90020BD
:1020A0000A2208E0D8F800100F1DC8F8007009686F
:1020B000CDE90020102202A800F0CCFCD8E7D8F827
:1020C0000000011DC8F80010076817F8011B00295F
:1020D000CED002A800F028FD05980028F5DAC7E761
:1020E000D8F80000011DC8F8001001680820CDE9EB
:1020F000000503461022DEE7059800287FF75BAF56
:10210000049820B1024607A93046FFF7E5FEDDE955
:102110000410084405904EE77047FEF767BE0000C4
:1021200030B593B030216846FEF7A0F914210CA811
:10213000FEF79CF91D480025016841F080510160BF
:10214000006800F0805011901948016841F4804106
:1021500001600068022400F480401190012000908A
:10216000000401908001CDE9064008AA0420A821BE
:1021700082E813000B906846FEF7CCFF08B172B6F8
:10218000FEE70CA90F2081E831004FF4A0500F901A
:102190004FF48050109005210CA8FEF7D1FE0028C6
:1021A00001D072B6FEE713B030BD000040380240E7
:1021B000007000400248016841F4700101607047FE
:1021C00088ED00E010B50548FFF745FA04480168BE
:1021D000491C0160BDE8104000F020BE180000203E
:1021E00010000020F0B50268294C2A4D2A4E2B4FD2
:1021F0002B4B4FF0804CA04209D0604507D0A8423D
:1022000005D0B04203D0B84201D0984204D122F0A8
:10221000700E4A6842EA0E02A0421BD0604519D0F7
:10222000A84217D0B04215D0B84213D0984211D06E
:102230001C4DA8420ED01C4DA8420BD01B4DA842ED
:1022400008D01B4DA84205D01A4DA84202D01A4D05
:10225000A84203D122F44075CA682A434D6922F08E
:1022600080022A4302608A68C2620A688262A042CF
:1022700001D0984201D109690163012141610169DD
:10228000C90703D0016921F001010161F0BD00001F
:10229000000001400004004000080040000C004025
:1022A000000401400040014000440140004801405A
:1022B00000180040001C00400020004010B5806B5A
:1022C0000021C185C184FFF7EEFA10BD70B5846BA3
:1022D0002068406994F84110C0F3C01000252129FE
:1022E00004D118B1E584204600F0B4F820684069B4
:1022F00094F84210C0F38010222904D118B1E5856A
:10230000204600F080F8606C40F0100060642046C9
:10231000FFF7C9FA70BD10B50146806B09680968FE
:102320004FF00002C9052ED4C28501680C3151E876
:10233000003F23F4807341E80034002CF5D101689C
:10234000143151E8003F23F0010341E80034002C30
:10235000F5D10168143151E8003F23F0400341E812
:102360000034002CF5D1202180F84210016B0129A6
:1023700009D101680C3151E8003F23F0100341E816
:102380000034002CF5D14263016B012902D0FFF724
:102390008BFC10BD818DFFF721FA10BD10B5806B4D
:1023A00001214163016B012902D0FFF77EFC10BDC2
:1023B000818D4908FFF712FA10BD10B50146806BF8
:1023C00009680968C90516D40021C184016814315F
:1023D00051E8002F22F0800241E80023002BF5D1C4
:1023E00001680C3151E8002F42F0400241E800231F
:1023F000002BF5D110BDFFF795FC10BD10B5806B1B
:10240000FFF79EFC10BD01680C3151E8002F22F44B
:10241000907241E80023002BF5D10168143151E896
:10242000002F22F0010241E80023002BF5D1016BBF
:10243000012909D101680C3151E8002F22F0100266
:1024400041E80023002BF5D1202180F84210002123
:102450000163704701680C3151E8002F22F0C0027F
:1024600041E80023002BF5D1202180F8411070476E
:1024700008B590F84210222901D0022008BD8268D8
:102480004FF480539A4201D1016921B1816A9A4285
:102490001BD04AB10AE00268816A5268C2F308029E
:1024A0000A80816A891C08E0026972B10268526878
:1024B00002F07F020A70816A491C8162C18D491E47
:1024C0000904090CC18503D01BE002685268F1E7DA
:1024D0000168CA6822F02002CA600168CA6822F452
:1024E0008072CA6001684A6922F001024A612021B3
:1024F00080F8421000214163026B012A03D0FFF7EC
:10250000D3FB002008BD016301680C3151E8002FA6
:1025100022F0100241E80023002BF5D101680A687F
:10252000D20602D50A6849680091818DFFF756F9F5
:10253000E7E7000070B5044600680169E26821F42D
:102540004051114301612169A068E2690843616952
:10255000114308432168CA6849F20C639A43024355
:10256000CA6020684169A26921F440711143416148
:1025700031492068884202D03049884202D1FEF7B2
:1025800089FD01E0FEF776FDE2690023192164254B
:102590003226B2F5004F626828D0A0FB0101930FEC
:1025A0009200FDF761FE0146B0FBF5F06FF01802F6
:1025B000504301EB800006EB0010B0FBF5F000F09B
:1025C000F002B1FBF5F002EB0012B1FBF5F06FF099
:1025D0001803584301EB800006EB0010B0FBF5F048
:1025E00000F00F0021681044886070BDA0FB01015D
:1025F00092185B41FDF738FE0146B0FBF5F0020191
:10260000B1FBF5F06FF01803584301EB800006EBC7
:10261000C000B0FBF5F000F0F80002EB4002B1FBA7
:10262000F5F0584301EB800006EBC000B0FBF5F07D
:1026300000F00700D6E70000001001400014014040
:1026400038B58162044682850020134660642222E8
:1026500084F84220E56B1B4AEA63E56B1A4A2A6458
:10266000E56B1A4AEA64E26B10650A462168E06B82
:10267000091DFEF7B9F920680168406800902069DB
:1026800048B120680C3050E8001F41F4807140E8E8
:102690000012002AF5D12068143050E8001F41F0E4
:1026A000010140E80012002AF5D12068143050E8FA
:1026B000001F41F0400140E80012002AF5D100203F
:1026C00038BD0000172300089D230008CD22000814
:1026D0000148FFF7E9B800006000002070B515461A
:1026E0000E46012806D0022806D0032806D004286A
:1026F00006D009E00DA104E013A102E019A100E059
:102700001FA10020FFF732FC002406E0325D23A168
:102710000020FFF72BFC641CA4B2AC42F6D3BDE84A
:10272000704016A10020FFF721BC00004D425F4D14
:1027300041535445525F54582043504C543A206CF6
:10274000656E2025640A00004D425F4D415354459B
:10275000525F52582043504C543A206C656E2025ED
:10276000640A00004D425F534C4156455F54582067
:1027700043504C543A206C656E2025640A000000DA
:102780004D425F534C4156455F52582043504C5484
:102790003A206C656E2025640A000000253032580E
:1027A0002000000070B505460E48854218D10E4C39
:1027B0002078882814D04FF4806631460B48FDF706
:1027C00033FE0022B1100A48FEF704FB32460749E7
:1027D0002846FEF7DCFF08B18A2000E08820207040
:1027E00070BD000060000020200600205C32002048
:1027F0000018024010B50446FFF702F8002060649C
:102800002046FFF735F82046BDE81040FFF784B9B1
:102810002DE9F0410646104886421AD10F4C207827
:10282000832816D00E4D0320A5F57B71AA8A0F468A
:10283000FFF754FF012211020A48FEF7CBFAAA8AD9
:1028400039463046FFF732FA08B1852000E0832090
:102850002070BDE8F081000060000020200600200C
:102860002C1600200018024010B5416C00291AD027
:10287000416C090705D50DA10020FFF777FB01206A
:1028800010BD416C890705D510A10020FFF76EFB34
:10289000022010BD406C400705D513A10020FFF7B2
:1028A00065FB032010BD002010BD00005553525F92
:1028B000554152545F556E737461626C653A204F96
:1028C00076657272756E210A000000005553525FE2
:1028D000554152545F556E737461626C653A204E77
:1028E0006F697365210A00005553525F5541525478
:1028F0005F556E737461626C653A204672616D69F2
:102900006E67210A00000000FEE7000010B5124CBF
:1029100003202061606111A0A06104F1A800E061C2
:102920004FF4806020620020A06260620BA12166EB
:10293000E06204F59561616610212067C4E91A1010
:10294000606709A1E01DFDF706FD08A12046FDF71F
:1029500002FD2020A07110BD680100205465726D39
:10296000696E616C000000005254540053454747A3
:10297000455200000269C1688A4203D88068401A43
:10298000104400E0501A401E704700002DE9FC5F23
:102990000E008146DDE90C47C6F1000098469346DB
:1029A000824600D40846012503E000BF90FBFBF0FF
:1029B0006D1C5845FADAA84500D9454624B1002EC9
:1029C00001DB780700D5641EB80702D5B8F1000F07
:1029D0000FD0F8070DD164B1A5420AD22021484694
:1029E000641E00F0A1F8D9F80C000028F3DABDE865
:1029F000FC9FD9F80C000028F9DB002E02DA5646BD
:102A00002D2102E0780707D52B21484600F08CF8ED
:102A1000D9F80C000028EADB07F0030002280FD1E8
:102A2000B8F1000F0CD15CB1A54209D23021484663
:102A3000641E00F079F8D9F80C000028F3DAD6E724
:102A4000CDE9004743465A463146484600F002F871
:102A5000CDE700002DE9F84F8246DDE90A4B01265B
:102A6000984691460D460846374602E0B0FBF9F01D
:102A70007F1C4845FAD2B84500D947465FEACB707B
:102A800017D1B4B15FEA8B7002D5B8F1000F02D054
:102A9000202000900BE03020FBE75046641E009998
:102AA00000F042F8DAF80C00002838DB0CB1A7423D
:102AB000F3D3DAF80C00002831DB00BFB8F1010FC6
:102AC00002D9A8F1010803E0B5FBF6F0484502D3AE
:102AD00006FB09F6F2E7DFF84C8000BFB5FBF6F025
:102AE00000FB165518F80010504600F01DF8DAF8F3
:102AF0000C00002803DBB6FBF9F6002EEED15FEAEE
:102B0000CB700CD0002C0AD0A74208D2202150460E
:102B1000641E00F009F8DAF80C000028F2DABDE8CB
:102B2000F88F00000232000810B50446D4E90130E5
:102B3000421C934205D323681954A260E068401CEC
:102B4000E060D4E90102824209D121682069FFF7DF
:102B5000C3F9A168884203D04FF0FF30E06010BD98
:102B60000020A06010BD2DE9F047C46817468946D3
:102B700006464FF000083069A04201D9051B02E06B
:102B8000B168201A0D1AB0686D1E001BA84200D84B
:102B90000546BD4200D33D4670682A46204449465A
:102BA000FDF7FDFBB0687F1B2C44A844A944A0425C
:102BB00000D10024F460002FDDD14046BDE8F0874D
:102BC0002DE9F04104468846D4E90207C51BE168B7
:102BD000606816460844B54206D94146FDF7DFFB5A
:102BE000B819E060BDE8F0812A464146FDF7D7FB01
:102BF000761B08EB050132466068FDF7D0FBE66006
:102C0000F0E70907090E002804DB00F1E02080F856
:102C10000014704700F00F0000F1E02080F8141D50
:102C20007047FFF749B9FEF7E9F8FFF779FAFFF7C0
:102C3000A7F8FFF787F8FFF7FFF8FFF71FF9FFF78F
:102C4000F0FFFEE770B505464FF6FF7000224AF22E
:102C500001040EE0AB5C58400023C60702D084EAB2
:102C6000500000E040085B1CDBB2082BF5D3521C7F
:102C700092B28A42EED370BD30B520B119B1012AAB
:102C800003D0002315E0002030BD008840BAB0F525
:102C90007F4F02D0002008700DE00120FBE7DD0827
:102CA00003F00704455DE54005F00104CC545B1CCE
:102CB0009BB29342F3D3521ED01702EB5070012106
:102CC00001EBE000C0B230BD10B510B109B1002376
:102CD0000AE0002010BD00BF00EB4304248864BA62
:102CE00021F813405B1C9BB29342F5D35006000EB3
:102CF00010BDF0B528B121B1012A04D00023012470
:102D000015E00020F0BD007800B1FF200870002021
:102D1000487014E0C55C45B101EBD30603F007072A
:102D2000357804FA07F73D4335705B1C9BB293423C
:102D3000F0D3012A03D0D21DD008C0B2F0BD0220CA
:102D4000FBE7000030B510B109B100230EE0002010
:102D500030BD00BF30F8134001EB4305240A01F8F1
:102D6000134010F813405B1C6C709BB29342F1D37C
:102D70005006000E30BD000070B50446084884427D
:102D80000CD141F214052946201DFDF76FFB281DCB
:102D900029462044BDE87040FDF768BB70BD0000C7
:102DA0002C06002010B500280BD0002909D0002ADD
:102DB00007D0002303E0CC5CC4545B1C9BB293425D
:102DC000F9D310BD0B4908B5887949790022052946
:102DD00009D007DD062905D1ADF80020012269469A
:102DE00000F014F908BD8DF800200122694600F0BA
:102DF000FFF808BD2C06002010B50548FFF7BCFF02
:102E00000448002180F82C1003498120087010BD6F
:102E10002C0600202C2600202006002070B5254C12
:102E20008126254D207881380E2828D2DFE800F051
:102E3000073327382727270C133E27272E28BDE8DE
:102E400070401E48FFF7AEBC1C48FFF70DFD002880
:102E500015D08A201DE01A481A490078097888425E
:102E60000CD1194E164919483288FFF79BFF30885C
:102E700028851248FFF796FC8E200AE0267070BD68
:102E800000F026F885F82C008D2002E000F0CEF846
:102E90008220207070BDBDE870400848FFF7B8BCC4
:102EA000FFF790FFBDE87040FFF7A6BF0348FFF7AC
:102EB000A1FCE3E7200600202C2600206000002073
:102EC0005C3200202C060020140000205422002038
:102ED00070B5444C04F5805504F54160298A00F032
:102EE00047F930B194F8100C2070F72803D904206A
:102EF00070BD062070BD94F8110C607000F051F99F
:102F000040B1B4F8120C40BA6080B0F5806F03D3C2
:102F1000022070BD012070BD6078334A0121A2F209
:102F2000044305281CD008DC012810D002280ED04C
:102F300003280CD004283ED109E02C4E062818D0D6
:102F4000A6F601030F2821D0102834D135E0B4F8BB
:102F5000140C41BAA180608800F01AF9F0B32AE09D
:102F6000A180608800F014F9C0B360888118012244
:102F70001EE0A180608800F00BF978B36088A28819
:102F800006EB40011846FFF79FFE14E0B4F8140C5E
:102F900041BAA180608800F0FBF8F8B194F8160CF3
:102FA000A071298A0930884216D160888118A288C8
:102FB0001846FFF761FE002070BDB4F8140C41BA4A
:102FC000A180608800F0E4F840B194F8160CA0717C
:102FD000298A09308842D1D0112070BDFFE7122024
:102FE000FBE70000441600205C2600205C2A00203D
:102FF00030B50023044C04E01D18655DCD545B1C06
:103000009BB29342F8D330BD5C26002030B500233C
:10301000054C06E01D1834F8155021F813505B1CC0
:103020009BB29342F6D330BD5C2A0020F0B54248F3
:10303000434D041D0078207084F8100C3F4890F830
:103040002C0030B184F8110C002084F8120C0520FB
:1030500035E03B48394F001F3037417E617084F8BE
:10306000111C418B6180828BA280607835490826D3
:1030700007F58063052824D00BDC32490128A1F133
:1030800001010DD002280BD003280ED0042841D115
:103090000BE0062822D00F282ED010283AD12BE0A2
:1030A00060883844FFF725FE04E0608803EB4000A9
:1030B000FFF748FEA07184F8120CC0B2401D2882B0
:1030C00028E060880122000A84F8120CA07884F8B5
:1030D000130C60883844FFF70CFE1AE06088012268
:1030E000000A84F8120CA07884F8130C608803EBB3
:1030F0004000FFF727FE0CE06088000A84F8120CFD
:10310000A07884F8130C100A84F8140C207984F841
:10311000150C2E82288A801E81B204F54160FFF7CB
:1031200091FD2A8A04F60E4104F60F445054298A70
:10313000000A08550020F0BD2C0600202C26002097
:10314000301600204412002000244FF47A75641CCD
:10315000A4B22146002000F005F82846FDF77CFCCB
:10316000F5E70000014A22F8101070475C2A0020A1
:1031700010B502290AD34218891E32F8024C89B2CE
:10318000FFF760FDA04201D1012010BD002010BD5D
:10319000401804D0B0F5806F01D2012070470020A4
:1031A00070470F2816D007DC072811D2DFE800F09F
:1031B000101212121212120015280BD004DC102863
:1031C00008D0142804D105E0162803D02B2801D0FC
:1031D00000207047012070474FF04070E1EE100A68
:1031E00070470006101600061016000000000000D0
:1031F00000000102030406070809000000000102A4
:1032000003043031323334353637383941424344A0
:10321000454600003432000800000020180000007D
:10322000C40100084C32000818000020A83C00002F
:10323000E001000801000000100000000000000094
:0C3240000024F40000000000000000006A
:040000050800018965
:00000001FF
